{
  "contractName": "ExerciseC6C",
  "abi": [
    {
      "inputs": [],
      "payable": false,
      "stateMutability": "nonpayable",
      "type": "constructor"
    },
    {
      "constant": true,
      "inputs": [
        {
          "name": "id",
          "type": "string"
        }
      ],
      "name": "isEmployeeRegistered",
      "outputs": [
        {
          "name": "",
          "type": "bool"
        }
      ],
      "payable": false,
      "stateMutability": "view",
      "type": "function"
    },
    {
      "constant": false,
      "inputs": [
        {
          "name": "contractAddress",
          "type": "address"
        }
      ],
      "name": "authorizeContract",
      "outputs": [],
      "payable": false,
      "stateMutability": "nonpayable",
      "type": "function"
    },
    {
      "constant": false,
      "inputs": [
        {
          "name": "contractAddress",
          "type": "address"
        }
      ],
      "name": "deauthorizeContract",
      "outputs": [],
      "payable": false,
      "stateMutability": "nonpayable",
      "type": "function"
    },
    {
      "constant": false,
      "inputs": [
        {
          "name": "id",
          "type": "string"
        },
        {
          "name": "isAdmin",
          "type": "bool"
        },
        {
          "name": "wallet",
          "type": "address"
        }
      ],
      "name": "registerEmployee",
      "outputs": [],
      "payable": false,
      "stateMutability": "nonpayable",
      "type": "function"
    },
    {
      "constant": true,
      "inputs": [
        {
          "name": "id",
          "type": "string"
        }
      ],
      "name": "getEmployeeBonus",
      "outputs": [
        {
          "name": "",
          "type": "uint256"
        }
      ],
      "payable": false,
      "stateMutability": "view",
      "type": "function"
    },
    {
      "constant": false,
      "inputs": [
        {
          "name": "id",
          "type": "string"
        },
        {
          "name": "sales",
          "type": "uint256"
        },
        {
          "name": "bonus",
          "type": "uint256"
        }
      ],
      "name": "updateEmployee",
      "outputs": [],
      "payable": false,
      "stateMutability": "nonpayable",
      "type": "function"
    }
  ],
  "bytecode": "0x608060405234801561001057600080fd5b50336000806101000a81548173ffffffffffffffffffffffffffffffffffffffff021916908373ffffffffffffffffffffffffffffffffffffffff160217905550610ae5806100606000396000f300608060405260043610610078576000357c0100000000000000000000000000000000000000000000000000000000900463ffffffff168063228f25dc1461007d57806356b35dd5146100e457806367561d93146101335780636e861c0e14610176578063ea20f20a146101b9578063f6f2dfcb1461020c575b600080fd5b34801561008957600080fd5b506100e2600480360381019080803590602001908201803590602001919091929391929390803515159060200190929190803573ffffffffffffffffffffffffffffffffffffffff16906020019092919050505061025b565b005b3480156100f057600080fd5b50610131600480360381019080803590602001908201803590602001919091929391929390803590602001909291908035906020019092919050505061052d565b005b34801561013f57600080fd5b50610174600480360381019080803573ffffffffffffffffffffffffffffffffffffffff1690602001909291905050506106ab565b005b34801561018257600080fd5b506101b7600480360381019080803573ffffffffffffffffffffffffffffffffffffffff1690602001909291905050506107b7565b005b3480156101c557600080fd5b506101f26004803603810190808035906020019082018035906020019190919293919293905050506108c1565b604051808215151515815260200191505060405180910390f35b34801561021857600080fd5b50610245600480360381019080803590602001908201803590602001919091929391929390505050610901565b6040518082815260200191505060405180910390f35b6000809054906101000a900473ffffffffffffffffffffffffffffffffffffffff1673ffffffffffffffffffffffffffffffffffffffff163373ffffffffffffffffffffffffffffffffffffffff1614151561031f576040517f08c379a000000000000000000000000000000000000000000000000000000000815260040180806020018281038252601c8152602001807f43616c6c6572206973206e6f7420636f6e7472616374206f776e65720000000081525060200191505060405180910390fd5b6001848460405180838380828437820191505092505050908152602001604051809103902060010160009054906101000a900460ff161515156103ca576040517f08c379a000000000000000000000000000000000000000000000000000000000815260040180806020018281038252601f8152602001807f456d706c6f79656520697320616c726561647920726567697374657265642e0081525060200191505060405180910390fd5b60c06040519081016040528085858080601f0160208091040260200160405190810160405280939291908181526020018383808284378201915050505050508152602001600115158152602001831515815260200160008152602001600081526020018273ffffffffffffffffffffffffffffffffffffffff16815250600185856040518083838082843782019150509250505090815260200160405180910390206000820151816000019080519060200190610488929190610a14565b5060208201518160010160006101000a81548160ff02191690831515021790555060408201518160010160016101000a81548160ff021916908315150217905550606082015181600201556080820151816003015560a08201518160040160006101000a81548173ffffffffffffffffffffffffffffffffffffffff021916908373ffffffffffffffffffffffffffffffffffffffff16021790555090505050505050565b6001848460405180838380828437820191505092505050908152602001604051809103902060010160009054906101000a900460ff1615156105d7576040517f08c379a000000000000000000000000000000000000000000000000000000000815260040180806020018281038252601b8152602001807f456d706c6f796565206973206e6f7420726567697374657265642e000000000081525060200191505060405180910390fd5b6106128260018686604051808383808284378201915050925050509081526020016040518091039020600201546109f890919063ffffffff16565b60018585604051808383808284378201915050925050509081526020016040518091039020600201819055506106798160018686604051808383808284378201915050925050509081526020016040518091039020600301546109f890919063ffffffff16565b600185856040518083838082843782019150509250505090815260200160405180910390206003018190555050505050565b6000809054906101000a900473ffffffffffffffffffffffffffffffffffffffff1673ffffffffffffffffffffffffffffffffffffffff163373ffffffffffffffffffffffffffffffffffffffff1614151561076f576040517f08c379a000000000000000000000000000000000000000000000000000000000815260040180806020018281038252601c8152602001807f43616c6c6572206973206e6f7420636f6e7472616374206f776e65720000000081525060200191505060405180910390fd5b6001600260008373ffffffffffffffffffffffffffffffffffffffff1673ffffffffffffffffffffffffffffffffffffffff1681526020019081526020016000208190555050565b6000809054906101000a900473ffffffffffffffffffffffffffffffffffffffff1673ffffffffffffffffffffffffffffffffffffffff163373ffffffffffffffffffffffffffffffffffffffff1614151561087b576040517f08c379a000000000000000000000000000000000000000000000000000000000815260040180806020018281038252601c8152602001807f43616c6c6572206973206e6f7420636f6e7472616374206f776e65720000000081525060200191505060405180910390fd5b600260008273ffffffffffffffffffffffffffffffffffffffff1673ffffffffffffffffffffffffffffffffffffffff1681526020019081526020016000206000905550565b60006001838360405180838380828437820191505092505050908152602001604051809103902060010160009054906101000a900460ff16905092915050565b60008060009054906101000a900473ffffffffffffffffffffffffffffffffffffffff1673ffffffffffffffffffffffffffffffffffffffff163373ffffffffffffffffffffffffffffffffffffffff161415156109c7576040517f08c379a000000000000000000000000000000000000000000000000000000000815260040180806020018281038252601c8152602001807f43616c6c6572206973206e6f7420636f6e7472616374206f776e65720000000081525060200191505060405180910390fd5b6001838360405180838380828437820191505092505050908152602001604051809103902060030154905092915050565b60008183019050828110151515610a0b57fe5b80905092915050565b828054600181600116156101000203166002900490600052602060002090601f016020900481019282601f10610a5557805160ff1916838001178555610a83565b82800160010185558215610a83579182015b82811115610a82578251825591602001919060010190610a67565b5b509050610a909190610a94565b5090565b610ab691905b80821115610ab2576000816000905550600101610a9a565b5090565b905600a165627a7a72305820c00a8257b43c06be5716bea903883fef2621da2c479f9a81e13d44c60823f2960029",
  "source": "pragma solidity ^0.4.25;\r\n\r\n// It's important to avoid vulnerabilities due to numeric overflow bugs\r\n// OpenZeppelin's SafeMath library, when used correctly, protects agains such bugs\r\n// More info: https://www.nccgroup.trust/us/about-us/newsroom-and-events/blog/2018/november/smart-contract-insecurity-bad-arithmetic/\r\n\r\nimport \"../../node_modules/openzeppelin-solidity/contracts/math/SafeMath.sol\";\r\n\r\n\r\ncontract ExerciseC6C {\r\n    using SafeMath for uint256; // Allow SafeMath functions to be called for all uint256 types (similar to \"prototype\" in Javascript)\r\n\r\n    /********************************************************************************************/\r\n    /*                                       DATA VARIABLES                                     */\r\n    /********************************************************************************************/\r\n\r\n    struct Profile {\r\n        string id;\r\n        bool isRegistered;\r\n        bool isAdmin;\r\n        uint256 sales;\r\n        uint256 bonus;\r\n        address wallet;\r\n    }\r\n\r\n    address private contractOwner;              // Account used to deploy contract\r\n    mapping(string => Profile) employees;      // Mapping for storing employees\r\n    mapping(address => uint256) private authorizedContracts;\r\n\r\n    /********************************************************************************************/\r\n    /*                                       EVENT DEFINITIONS                                  */\r\n    /********************************************************************************************/\r\n\r\n    // No events\r\n\r\n    /**\r\n    * @dev Constructor\r\n    *      The deploying account becomes contractOwner\r\n    */\r\n    constructor\r\n                                (\r\n                                ) \r\n                                public \r\n    {\r\n        contractOwner = msg.sender;\r\n    }\r\n\r\n    /********************************************************************************************/\r\n    /*                                       FUNCTION MODIFIERS                                 */\r\n    /********************************************************************************************/\r\n\r\n    // Modifiers help avoid duplication of code. They are typically used to validate something\r\n    // before a function is allowed to be executed.\r\n\r\n    /**\r\n    * @dev Modifier that requires the \"ContractOwner\" account to be the function caller\r\n    */\r\n    modifier requireContractOwner()\r\n    {\r\n        require(msg.sender == contractOwner, \"Caller is not contract owner\");\r\n        _;\r\n    }\r\n\r\n    modifier requireIsCallerAuthorized()\r\n    {\r\n        require(authorizedContracts[msg.sender] == 1, \"Caller is not contract owner\");\r\n        _;\r\n    }\r\n\r\n\r\n    /********************************************************************************************/\r\n    /*                                       UTILITY FUNCTIONS                                  */\r\n    /********************************************************************************************/\r\n\r\n   /**\r\n    * @dev Check if an employee is registered\r\n    *\r\n    * @return A bool that indicates if the employee is registered\r\n    */   \r\n    function isEmployeeRegistered\r\n                            (\r\n                                string id\r\n                            )\r\n                            external\r\n                            view\r\n                            returns(bool)\r\n    {\r\n        return employees[id].isRegistered;\r\n    }\r\n\r\n    function authorizeContract\r\n                            (\r\n                                address contractAddress\r\n                            )\r\n                            external\r\n                            requireContractOwner\r\n    {\r\n        authorizedContracts[contractAddress] = 1;\r\n    }\r\n\r\n    function deauthorizeContract\r\n                            (\r\n                                address contractAddress\r\n                            )\r\n                            external\r\n                            requireContractOwner\r\n    {\r\n        delete authorizedContracts[contractAddress];\r\n    }\r\n\r\n    /********************************************************************************************/\r\n    /*                                     SMART CONTRACT FUNCTIONS                             */\r\n    /********************************************************************************************/\r\n\r\n    function registerEmployee\r\n                                (\r\n                                    string id,\r\n                                    bool isAdmin,\r\n                                    address wallet\r\n                                )\r\n                                external\r\n                                requireContractOwner\r\n    {\r\n        require(!employees[id].isRegistered, \"Employee is already registered.\");\r\n\r\n        employees[id] = Profile({\r\n                                        id: id,\r\n                                        isRegistered: true,\r\n                                        isAdmin: isAdmin,\r\n                                        sales: 0,\r\n                                        bonus: 0,\r\n                                        wallet: wallet\r\n                                });\r\n    }\r\n\r\n    function getEmployeeBonus\r\n                            (\r\n                                string id\r\n                            )\r\n                            external\r\n                            view\r\n                            requireContractOwner\r\n                            returns(uint256)\r\n    {\r\n        return employees[id].bonus;\r\n    }\r\n\r\n    function updateEmployee\r\n                                (\r\n                                    string id,\r\n                                    uint256 sales,\r\n                                    uint256 bonus\r\n\r\n                                )\r\n                                external\r\n    {\r\n        require(employees[id].isRegistered, \"Employee is not registered.\");\r\n\r\n        employees[id].sales = employees[id].sales.add(sales);\r\n        employees[id].bonus = employees[id].bonus.add(bonus);\r\n\r\n    }\r\n\r\n\r\n}\r\n\r\n",
  "sourcePath": "D:\\repo\\BCND-C6-Exercises\\contracts\\ExerciseC6C\\ExerciseC6C.sol",
  "compiler": {
    "name": "solc",
    "version": "0.4.25+commit.59dbf8f1.Emscripten.clang"
  },
  "schemaVersion": "2.0.2",
  "updatedAt": "2019-03-15T04:30:14.829Z"
}