{
  "contractName": "ExerciseC6CApp",
  "abi": [
    {
      "inputs": [
        {
          "name": "dataContract",
          "type": "address"
        }
      ],
      "payable": false,
      "stateMutability": "nonpayable",
      "type": "constructor"
    },
    {
      "constant": false,
      "inputs": [
        {
          "name": "id",
          "type": "string"
        },
        {
          "name": "amount",
          "type": "uint256"
        }
      ],
      "name": "addSale",
      "outputs": [],
      "payable": false,
      "stateMutability": "nonpayable",
      "type": "function"
    }
  ],
  "bytecode": "0x608060405234801561001057600080fd5b5060405160208061034983398101806040528101908080519060200190929190505050336000806101000a81548173ffffffffffffffffffffffffffffffffffffffff021916908373ffffffffffffffffffffffffffffffffffffffff16021790555080600160006101000a81548173ffffffffffffffffffffffffffffffffffffffff021916908373ffffffffffffffffffffffffffffffffffffffff16021790555050610285806100c46000396000f300608060405260043610610041576000357c0100000000000000000000000000000000000000000000000000000000900463ffffffff1680635cd25e5314610046575b600080fd5b34801561005257600080fd5b506100896004803603810190808035906020019082018035906020019190919293919293908035906020019092919050505061008b565b005b600160009054906101000a900473ffffffffffffffffffffffffffffffffffffffff1673ffffffffffffffffffffffffffffffffffffffff166356b35dd58484846100d58661016b565b6040518563ffffffff167c010000000000000000000000000000000000000000000000000000000002815260040180806020018481526020018381526020018281038252868682818152602001925080828437820191505095505050505050600060405180830381600087803b15801561014e57600080fd5b505af1158015610162573d6000803e3d6000fd5b50505050505050565b600060648210156101a45761019d606461018f60058561020b90919063ffffffff16565b61024390919063ffffffff16565b9050610206565b6101f48210156101dc576101d560646101c760078561020b90919063ffffffff16565b61024390919063ffffffff16565b9050610206565b61020360646101f5600a8561020b90919063ffffffff16565b61024390919063ffffffff16565b90505b919050565b60008083141561021e576000905061023d565b818302905081838281151561022f57fe5b0414151561023957fe5b8090505b92915050565b6000818381151561025057fe5b049050929150505600a165627a7a72305820cbadcacca14bc577bd015ef4aac553c46118b0e8a3c73b7eebcefc2133762e890029",
  "source": "pragma solidity ^0.4.25;\r\n\r\n// It's important to avoid vulnerabilities due to numeric overflow bugs\r\n// OpenZeppelin's SafeMath library, when used correctly, protects agains such bugs\r\n// More info: https://www.nccgroup.trust/us/about-us/newsroom-and-events/blog/2018/november/smart-contract-insecurity-bad-arithmetic/\r\n\r\nimport \"../../node_modules/openzeppelin-solidity/contracts/math/SafeMath.sol\";\r\n\r\n\r\ncontract ExerciseC6CApp {\r\n    using SafeMath for uint256; // Allow SafeMath functions to be called for all uint256 types (similar to \"prototype\" in Javascript)\r\n\r\n\r\n    address private contractOwner;              // Account used to deploy contract\r\n    ExerciseC6C exerciseC6C;\r\n\r\n    modifier requireContractOwner()\r\n    {\r\n        require(msg.sender == contractOwner, \"Caller is not contract owner\");\r\n        _;\r\n    }\r\n    \r\n    constructor\r\n                                (\r\n                                    address dataContract\r\n                                ) \r\n                                public \r\n    {\r\n        contractOwner = msg.sender;\r\n        exerciseC6C = ExerciseC6C(dataContract);\r\n    }\r\n\r\n\r\n    function calculateBonus\r\n                            (\r\n                                uint256 sales\r\n                            )\r\n                            internal\r\n                            pure\r\n                            returns(uint256)\r\n    {\r\n        if (sales < 100) {\r\n            return sales.mul(5).div(100);\r\n        }\r\n        else if (sales < 500) {\r\n            return sales.mul(7).div(100);\r\n        }\r\n        else {\r\n            return sales.mul(10).div(100);\r\n        }\r\n    }\r\n\r\n    function addSale\r\n                                (\r\n                                    string id,\r\n                                    uint256 amount\r\n                                )\r\n                                external\r\n    {\r\n        exerciseC6C.updateEmployee(\r\n                        id,\r\n                        amount,\r\n                        calculateBonus(amount)\r\n        );\r\n    }\r\n\r\n\r\n}\r\n\r\ncontract ExerciseC6C {\r\n    function updateEmployee(string id, uint256 sales, uint256 bonus) external;\r\n}\r\n",
  "sourcePath": "D:\\repo\\BCND-C6-Exercises\\contracts\\ExerciseC6C\\ExerciseC6CApp.sol",
  "compiler": {
    "name": "solc",
    "version": "0.4.25+commit.59dbf8f1.Emscripten.clang"
  },
  "schemaVersion": "2.0.2",
  "updatedAt": "2019-03-15T04:28:26.423Z"
}